{
  "contractName": "LoanContract",
  "abi": [
    {
      "anonymous": false,
      "inputs": [
        {
          "indexed": false,
          "internalType": "uint256",
          "name": "loanId",
          "type": "uint256"
        },
        {
          "indexed": false,
          "internalType": "uint256",
          "name": "amount",
          "type": "uint256"
        },
        {
          "indexed": false,
          "internalType": "uint256",
          "name": "interest",
          "type": "uint256"
        },
        {
          "indexed": false,
          "internalType": "uint256",
          "name": "duration",
          "type": "uint256"
        },
        {
          "indexed": false,
          "internalType": "string",
          "name": "description",
          "type": "string"
        },
        {
          "indexed": false,
          "internalType": "uint256",
          "name": "riskScore",
          "type": "uint256"
        },
        {
          "indexed": false,
          "internalType": "address",
          "name": "borrower",
          "type": "address"
        }
      ],
      "name": "LoanCreated",
      "type": "event"
    },
    {
      "anonymous": false,
      "inputs": [
        {
          "indexed": false,
          "internalType": "uint256",
          "name": "loanId",
          "type": "uint256"
        },
        {
          "indexed": false,
          "internalType": "address",
          "name": "lender",
          "type": "address"
        },
        {
          "indexed": false,
          "internalType": "uint256",
          "name": "amount",
          "type": "uint256"
        }
      ],
      "name": "LoanFunded",
      "type": "event"
    },
    {
      "anonymous": false,
      "inputs": [
        {
          "indexed": false,
          "internalType": "uint256",
          "name": "loanId",
          "type": "uint256"
        },
        {
          "indexed": false,
          "internalType": "uint256",
          "name": "amount",
          "type": "uint256"
        },
        {
          "indexed": false,
          "internalType": "uint256",
          "name": "interest",
          "type": "uint256"
        }
      ],
      "name": "LoanRepaid",
      "type": "event"
    },
    {
      "inputs": [],
      "name": "loanCounter",
      "outputs": [
        {
          "internalType": "uint256",
          "name": "",
          "type": "uint256"
        }
      ],
      "stateMutability": "view",
      "type": "function",
      "constant": true
    },
    {
      "inputs": [
        {
          "internalType": "uint256",
          "name": "",
          "type": "uint256"
        }
      ],
      "name": "loans",
      "outputs": [
        {
          "internalType": "uint256",
          "name": "amount",
          "type": "uint256"
        },
        {
          "internalType": "uint256",
          "name": "interest",
          "type": "uint256"
        },
        {
          "internalType": "uint256",
          "name": "duration",
          "type": "uint256"
        },
        {
          "internalType": "string",
          "name": "description",
          "type": "string"
        },
        {
          "internalType": "address payable",
          "name": "borrower",
          "type": "address"
        },
        {
          "internalType": "address payable",
          "name": "lender",
          "type": "address"
        },
        {
          "internalType": "bool",
          "name": "repaid",
          "type": "bool"
        },
        {
          "internalType": "uint256",
          "name": "riskScore",
          "type": "uint256"
        }
      ],
      "stateMutability": "view",
      "type": "function",
      "constant": true
    },
    {
      "inputs": [
        {
          "internalType": "uint256",
          "name": "_amount",
          "type": "uint256"
        },
        {
          "internalType": "uint256",
          "name": "_interest",
          "type": "uint256"
        },
        {
          "internalType": "uint256",
          "name": "_duration",
          "type": "uint256"
        },
        {
          "internalType": "string",
          "name": "_description",
          "type": "string"
        },
        {
          "internalType": "uint256",
          "name": "_riskScore",
          "type": "uint256"
        }
      ],
      "name": "createLoan",
      "outputs": [],
      "stateMutability": "nonpayable",
      "type": "function"
    },
    {
      "inputs": [
        {
          "internalType": "uint256",
          "name": "_loanId",
          "type": "uint256"
        }
      ],
      "name": "fundLoan",
      "outputs": [],
      "stateMutability": "payable",
      "type": "function",
      "payable": true
    },
    {
      "inputs": [
        {
          "internalType": "uint256",
          "name": "_loanId",
          "type": "uint256"
        }
      ],
      "name": "repayLoan",
      "outputs": [],
      "stateMutability": "payable",
      "type": "function",
      "payable": true
    }
  ],
  "bytecode": "0x608060405234801561001057600080fd5b5061103a806100206000396000f3fe60806040526004361061004a5760003560e01c80631d59930a1461004f57806334d9289e14610078578063846b909a146100a3578063ab7b1c89146100bf578063e1ec3c68146100db575b600080fd5b34801561005b57600080fd5b506100766004803603810190610071919061095d565b61011f565b005b34801561008457600080fd5b5061008d6102f7565b60405161009a9190610be1565b60405180910390f35b6100bd60048036038101906100b89190610934565b6102fd565b005b6100d960048036038101906100d49190610934565b6104d9565b005b3480156100e757600080fd5b5061010260048036038101906100fd9190610934565b6106f7565b604051610116989796959493929190610c6a565b60405180910390f35b6001600081548092919061013290610f06565b91905055506040518061010001604052808681526020018581526020018481526020018381526020013373ffffffffffffffffffffffffffffffffffffffff168152602001600073ffffffffffffffffffffffffffffffffffffffff16815260200160001515815260200182815250600080600154815260200190815260200160002060008201518160000155602082015181600101556040820151816002015560608201518160030190805190602001906101ef929190610814565b5060808201518160040160006101000a81548173ffffffffffffffffffffffffffffffffffffffff021916908373ffffffffffffffffffffffffffffffffffffffff16021790555060a08201518160050160006101000a81548173ffffffffffffffffffffffffffffffffffffffff021916908373ffffffffffffffffffffffffffffffffffffffff16021790555060c08201518160050160146101000a81548160ff02191690831515021790555060e082015181600601559050507fd564c1daa88c37b0f6df55e21a0cd136624a64881a9042b32fef736aa37c7ed36001548686868686336040516102e89796959493929190610cef565b60405180910390a15050505050565b60015481565b6000806000838152602001908152602001600020905080600001543414610359576040517f08c379a000000000000000000000000000000000000000000000000000000000815260040161035090610bc1565b60405180910390fd5b600073ffffffffffffffffffffffffffffffffffffffff168160050160009054906101000a900473ffffffffffffffffffffffffffffffffffffffff1673ffffffffffffffffffffffffffffffffffffffff16146103ec576040517f08c379a00000000000000000000000000000000000000000000000000000000081526004016103e390610b61565b60405180910390fd5b338160050160006101000a81548173ffffffffffffffffffffffffffffffffffffffff021916908373ffffffffffffffffffffffffffffffffffffffff1602179055508060040160009054906101000a900473ffffffffffffffffffffffffffffffffffffffff1673ffffffffffffffffffffffffffffffffffffffff166108fc349081150290604051600060405180830381858888f19350505050158015610499573d6000803e3d6000fd5b507fbd7ef6c6281278f6c8ac4ae9ef2f205b52425813c288dd47c377cb6b59c5076e8233346040516104cd93929190610bfc565b60405180910390a15050565b600080600083815260200190815260200160002090508060040160009054906101000a900473ffffffffffffffffffffffffffffffffffffffff1673ffffffffffffffffffffffffffffffffffffffff163373ffffffffffffffffffffffffffffffffffffffff1614610581576040517f08c379a000000000000000000000000000000000000000000000000000000000815260040161057890610ba1565b60405180910390fd5b806001015481600001546105959190610de2565b34146105d6576040517f08c379a00000000000000000000000000000000000000000000000000000000081526004016105cd90610bc1565b60405180910390fd5b8060050160149054906101000a900460ff1615610628576040517f08c379a000000000000000000000000000000000000000000000000000000000815260040161061f90610b81565b60405180910390fd5b8060050160009054906101000a900473ffffffffffffffffffffffffffffffffffffffff1673ffffffffffffffffffffffffffffffffffffffff166108fc349081150290604051600060405180830381858888f19350505050158015610692573d6000803e3d6000fd5b5060018160050160146101000a81548160ff0219169083151502179055507fd9cfbcfb9ae5d65b8d34072de4575f602ee25cf3715bc05c291701fe9e258f9a82826000015483600101546040516106eb93929190610c33565b60405180910390a15050565b600060205280600052604060002060009150905080600001549080600101549080600201549080600301805461072c90610ed4565b80601f016020809104026020016040519081016040528092919081815260200182805461075890610ed4565b80156107a55780601f1061077a576101008083540402835291602001916107a5565b820191906000526020600020905b81548152906001019060200180831161078857829003601f168201915b5050505050908060040160009054906101000a900473ffffffffffffffffffffffffffffffffffffffff16908060050160009054906101000a900473ffffffffffffffffffffffffffffffffffffffff16908060050160149054906101000a900460ff16908060060154905088565b82805461082090610ed4565b90600052602060002090601f0160209004810192826108425760008555610889565b82601f1061085b57805160ff1916838001178555610889565b82800160010185558215610889579182015b8281111561088857825182559160200191906001019061086d565b5b509050610896919061089a565b5090565b5b808211156108b357600081600090555060010161089b565b5090565b60006108ca6108c584610d96565b610d65565b9050828152602081018484840111156108e257600080fd5b6108ed848285610e92565b509392505050565b600082601f83011261090657600080fd5b81356109168482602086016108b7565b91505092915050565b60008135905061092e81610fed565b92915050565b60006020828403121561094657600080fd5b60006109548482850161091f565b91505092915050565b600080600080600060a0868803121561097557600080fd5b60006109838882890161091f565b95505060206109948882890161091f565b94505060406109a58882890161091f565b935050606086013567ffffffffffffffff8111156109c257600080fd5b6109ce888289016108f5565b92505060806109df8882890161091f565b9150509295509295909350565b6109f581610e4a565b82525050565b610a0481610e38565b82525050565b610a1381610e5c565b82525050565b6000610a2482610dc6565b610a2e8185610dd1565b9350610a3e818560208601610ea1565b610a4781610fdc565b840191505092915050565b6000610a5f601383610dd1565b91507f4c6f616e20616c72656164792066756e646564000000000000000000000000006000830152602082019050919050565b6000610a9f601383610dd1565b91507f4c6f616e20616c726561647920726570616964000000000000000000000000006000830152602082019050919050565b6000610adf601783610dd1565b91507f4f6e6c7920626f72726f7765722063616e2072657061790000000000000000006000830152602082019050919050565b6000610b1f601083610dd1565b91507f496e636f727265637420616d6f756e74000000000000000000000000000000006000830152602082019050919050565b610b5b81610e88565b82525050565b60006020820190508181036000830152610b7a81610a52565b9050919050565b60006020820190508181036000830152610b9a81610a92565b9050919050565b60006020820190508181036000830152610bba81610ad2565b9050919050565b60006020820190508181036000830152610bda81610b12565b9050919050565b6000602082019050610bf66000830184610b52565b92915050565b6000606082019050610c116000830186610b52565b610c1e60208301856109fb565b610c2b6040830184610b52565b949350505050565b6000606082019050610c486000830186610b52565b610c556020830185610b52565b610c626040830184610b52565b949350505050565b600061010082019050610c80600083018b610b52565b610c8d602083018a610b52565b610c9a6040830189610b52565b8181036060830152610cac8188610a19565b9050610cbb60808301876109ec565b610cc860a08301866109ec565b610cd560c0830185610a0a565b610ce260e0830184610b52565b9998505050505050505050565b600060e082019050610d04600083018a610b52565b610d116020830189610b52565b610d1e6040830188610b52565b610d2b6060830187610b52565b8181036080830152610d3d8186610a19565b9050610d4c60a0830185610b52565b610d5960c08301846109fb565b98975050505050505050565b6000604051905081810181811067ffffffffffffffff82111715610d8c57610d8b610fad565b5b8060405250919050565b600067ffffffffffffffff821115610db157610db0610fad565b5b601f19601f8301169050602081019050919050565b600081519050919050565b600082825260208201905092915050565b6000610ded82610e88565b9150610df883610e88565b9250827fffffffffffffffffffffffffffffffffffffffffffffffffffffffffffffffff03821115610e2d57610e2c610f4f565b5b828201905092915050565b6000610e4382610e68565b9050919050565b6000610e5582610e68565b9050919050565b60008115159050919050565b600073ffffffffffffffffffffffffffffffffffffffff82169050919050565b6000819050919050565b82818337600083830152505050565b60005b83811015610ebf578082015181840152602081019050610ea4565b83811115610ece576000848401525b50505050565b60006002820490506001821680610eec57607f821691505b60208210811415610f0057610eff610f7e565b5b50919050565b6000610f1182610e88565b91507fffffffffffffffffffffffffffffffffffffffffffffffffffffffffffffffff821415610f4457610f43610f4f565b5b600182019050919050565b7f4e487b7100000000000000000000000000000000000000000000000000000000600052601160045260246000fd5b7f4e487b7100000000000000000000000000000000000000000000000000000000600052602260045260246000fd5b7f4e487b7100000000000000000000000000000000000000000000000000000000600052604160045260246000fd5b6000601f19601f8301169050919050565b610ff681610e88565b811461100157600080fd5b5056fea2646970667358221220c21f1ba83a5a166e148282fb4725f8e7832433503d7cc15b5de68614c23c3f1264736f6c63430008000033",
  "immutableReferences": {},
  "source": "// SPDX-License-Identifier: MIT\npragma solidity ^0.8.0;\n\ncontract LoanContract {\n    struct Loan {\n        uint amount;\n        uint interest;\n        uint duration;\n        string description;\n        address payable borrower;\n        address payable lender;\n        bool repaid;\n        uint riskScore; // New field for risk score\n    }\n\n    mapping(uint => Loan) public loans;\n    uint public loanCounter;\n\n    event LoanCreated(uint loanId, uint amount, uint interest, uint duration, string description, uint riskScore, address borrower);\n    event LoanFunded(uint loanId, address lender, uint amount);\n    event LoanRepaid(uint loanId, uint amount, uint interest);\n\n    function createLoan(uint _amount, uint _interest, uint _duration, string memory _description, uint _riskScore) public {\n        loanCounter++;\n        loans[loanCounter] = Loan(_amount, _interest, _duration, _description, payable(msg.sender), payable(address(0)), false, _riskScore);\n        \n        // Emit an event when a loan is created\n        emit LoanCreated(loanCounter, _amount, _interest, _duration, _description, _riskScore, msg.sender);\n    }\n\n    function fundLoan(uint _loanId) public payable {\n        Loan storage loan = loans[_loanId];\n        require(msg.value == loan.amount, \"Incorrect amount\");\n        require(loan.lender == address(0), \"Loan already funded\");\n\n        loan.lender = payable(msg.sender);\n        loan.borrower.transfer(msg.value);\n\n        // Emit an event when a loan is funded\n        emit LoanFunded(_loanId, msg.sender, msg.value);\n    }\n\n    function repayLoan(uint _loanId) public payable {\n        Loan storage loan = loans[_loanId];\n        require(msg.sender == loan.borrower, \"Only borrower can repay\");\n        require(msg.value == loan.amount + loan.interest, \"Incorrect amount\");\n        require(!loan.repaid, \"Loan already repaid\");\n\n        loan.lender.transfer(msg.value);\n        loan.repaid = true;\n\n        // Emit an event when a loan is repaid\n        emit LoanRepaid(_loanId, loan.amount, loan.interest);\n    }\n}\n",
  "sourcePath": "/Users/leongrammy/Library/CloudStorage/GoogleDrive-leongramminger@gmail.com/My Drive/Private Work/dApp Micro Loans/contracts/LoanContract.sol",
  "compiler": {
    "name": "solc",
    "version": "0.8.0+commit.c7dfd78e.Emscripten.clang"
  },
  "schemaVersion": "3.4.16",
  "updatedAt": "2024-06-22T19:09:02.012Z",
  "networkType": "ethereum",
  "devdoc": {
    "kind": "dev",
    "methods": {},
    "version": 1
  },
  "userdoc": {
    "kind": "user",
    "methods": {},
    "version": 1
  }
}